:1000000018C127C126C125C1C2CE23C122C121C129
:1000100020C1F4CD1EC17ACE63CE1BC115CE19C14D
:1000200018C117C116C13132663637350A00313270
:10003000663632390A00313866343232300A0031DD
:100040003866323232300A00313866313232300AA4
:100050000031386634377131300A00313866343651
:100060007131300A0031386634357131300A00316F
:10007000386632377131300A0031386632367131C4
:10008000300A0031386632357131300A0031386655
:1000900032347131300A005645520A005643435FEC
:1000A0004F4E0A0057524954450A005359474E5F74
:1000B0004F4E0A005359474E5F4F46460A00535968
:1000C000474E0A00524541440A0048454C500A0038
:1000D00045524153450A00454E440A0043484950A1
:1000E0005F4C4953540A0043484950206E616D6586
:1000F0000A0043484950200A00656E640A00434FD5
:100100004E540A0062616420636869700A008D00C1
:10011000830079006F0065005B00510048003F00DC
:1001200036002E0026000000F200E700DC00FE0092
:10013000D700D000CA00C400BE00B400AB00A400C9
:100140009C00970000002062616420636F6D6D6108
:100150006E640A0020626164207479700A00206273
:100160006164206372630A002062616420686578BC
:100170000A0020746F6F2066617374210A00C071D9
:10018000A0718071007140712071E070E0078005FE
:10019000A005800FC00F00007379676E61747572DF
:1001A000650A006261642000626164205648480A62
:1001B00000004001008001010004020004008001F1
:1001C000010004020004736574206F7363203078AB
:1001D00037370A0065726173650A00777466210A11
:1001E0000063686F69636520636869700A003A306C
:1001F0003030303030303146460A000024435C72E3
:100200008493A0ABB4BCC2C7CCD0D374726F7069F6
:100210006320617574683A2074726F6C2E7369780C
:100220002047504C20763220762E302E322E330A44
:10023000000011241FBECFE5D4E0DEBFCDBF22E019
:10024000A0E6B0E001C01D92AC3DB207E1F7B5DD1C
:100250002FCED6CE9C019091C602E92FF0E0EE0F92
:10026000FF1FE953FD4F318320839F5F9770909369
:10027000C6020895FB01DC0184919D918A3011F43E
:10028000992339F0891307C08F7D31968111F4CFFE
:10029000089580E0089581E008959498969A929840
:1002A00095989798C098B89A8F9A0895CF92DF92B0
:1002B000EF92FF920F936B017C01C901DA0140912B
:1002C000AD025091AE026091AF027091B0024C1538
:1002D0005D056E057F0508F450C08C0D9D1DAE1D9B
:1002E000BF1D481759076A077B0708F046C0809171
:1002F000B3029091B402A091B502B091B6028C15F0
:100300009D05AE05BF0540F4C092B302D092B40281
:10031000E092B502F092B6028091B3029091B402DD
:10032000A091B502B091B602C02ED12CF12CE12CD7
:10033000481759076A077B07D8F48093B302909354
:10034000B402A093B502B093B6028C199D09AE0910
:10035000BF098093A7029093A802A093A902B0932B
:10036000AA0281E00F91FF90EF90DF90CF90089567
:100370008C0D9D1DAE1DBF1DD7CF80E0F3CF982FF4
:10038000F8948091D702892B8093D70278940895AE
:10039000F8949091D702809589238093D70278941E
:1003A000089582E2F5DF5D9BFECF9A99FECF81E151
:1003B0008CB9AB9808951092740110927301109249
:1003C00072011092710110927001109276011092D8
:1003D00075011092A4021092A302E3DF8CB188E3AE
:1003E000D7CFF8948091D8029091D902789408954B
:1003F0000F93209193023091940240919502509175
:10040000960202E060E070E0CB0150DF882319F033
:1004100081E00F91089502E020E031E040E050E0FB
:1004200060E070E080E290E041DF8111F1CF2CE0EC
:1004300030E040E050E060E070E080E390E036DFE4
:100440008111E6CF209197023091980250E040E070
:1004500001E060E070E081E390E028DF8823C9F2EA
:1004600082E0D7CF0F9302E020E038E040E050E098
:1004700060E070E0CB011ADF882319F081E00F9172
:10048000089502E028E030E040E050E060E070E4F1
:1004900080E090E00BDF8111F1CF22E030E040E01E
:1004A00050E06EE070E480E090E000DF81110DC06C
:1004B00020E031E040E050E060E072E480E090E075
:1004C000F5DE8823E1F283E0DACF82E0D8CF0F9324
:1004D000209193023091940240919502509196029E
:1004E00008E060E070E0CB01E1DE882319F081E0F4
:1004F0000F91089508E020E130E040E050E060E036
:1005000070E080E290E0D2DE8111F1CF02E02EE0D7
:1005100030E040E050E060E070E080E390E0C6DE74
:1005200081110EC001E020E031E040E050E060E0E9
:1005300070E080EF90E0BADE8823D1F283E0D8CF7C
:1005400082E0D6CF48E050E06FEF70E084E891E0C1
:10055000A8CC815008F40895ECECFAE03197F1F75B
:1005600000C00000F6CFCF93C82F9A9B04C09A9981
:10057000FECF85E0EEDFF8945D9B08C08091D70246
:1005800081FD04C0CCB97894CF9108957894EDCFD3
:10059000CF93C82F82958F70C03A78F0895CE3DFE3
:1005A0008C2F8F708A305CF0895CDDDF8091BA021D
:1005B0008C1B8093BA02CF910895805DF0CF805D4F
:1005C000F4CFCF93DF93EC0180E3CDDF88E7CBDF7F
:1005D0008D2FDEDF8C2FDF91CF91DACFCF93DF939A
:1005E000EC01FE0184912196181614F4BCDFF9CFBA
:1005F000DF91CF910895CF93DF93EC01FE018591B8
:100600009491009719F0EADF2296F8CFDF91CF910D
:100610000895CF93C82F892FBBDF8C2FB9DF80912E
:10062000B9028F5F8093B902803130F08AE09BDF9E
:100630001092B902CF91089580E2CF9194CFCF93D9
:10064000C82F1092BA028AE38EDF82E0A1DF80E039
:100650009FDF80E09DDF84E09BDF80E099DF8C2FCF
:1006600097DF8091BA0294DF8AE0CF917CCF8EEE43
:1006700091E0B4DF84E077CF0F931F93CF93DF93A4
:100680008C01C091B102D091B2028091B902811166
:1006900012C01092BA028AE366DFCE01019740973A
:1006A00088F180E175DF8091A60272DF8091A5025A
:1006B0006FDF80E06DDF22978091A5029091A60206
:1006C00002969093A6028093A502802F61DF812F6E
:1006D0005FDF8091B9028F5F8093B902883010F498
:1006E000209739F48091BA0253DF8AE03CDF109200
:1006F000B902D093B202C093B102DF91CF911F91A2
:100700000F9108958C2FCECF8091C10285FD0BC033
:10071000C4DD88EC1EDF949A88EB8A95F1F700001F
:10072000969882E016CF08958091C10285FD09C098
:10073000B4DD88EC0EDF969882E00BDF949A82E0BD
:1007400008CF0895CF939093C5028093C402C4E666
:10075000C15021F48091C10280621BC08AE0F9DEA1
:10076000F8942091BF023091C00278948091C40225
:100770009091C50203962817390750F78091C4025B
:100780009091C5024E978217930710F78091C1028E
:100790008F7D8093C102CF9108958091C3028730ED
:1007A00048F48CE894E0CEDFAFDF8091C10285FF92
:1007B00012C073CD8A3028F48CED95E0C3DFB4DF2E
:1007C000F4CF8C3040F48CED95E0BCDF8091C10219
:1007D00084FFF5CFE9CF08959C0180E020FF1AC087
:1007E000C09A979A6623C1F08130B1F4B8983695D3
:1007F0002795B0993068979800C08F5F803171F766
:10080000C098C9019695879527E02A95F1F700C011
:100810009F730895C098E5CF8F3049F7B89AE7CF16
:1008200091E0282F2923A9F0C09A979A00C0292F78
:1008300020958223B099892B979800C0990F209119
:1008400060002913EECFC09897E09A95F1F700C0A9
:100850000895C098EACFB89A90E190936000E0CFF5
:1008600090E490936000DCCFCF93DF93EC0120976E
:1008700019F4DF91CF91089586E0F2DF2197F7CF49
:1008800084E0EEDF61E090E080E0A6CFCF93DF93DD
:10089000EC011092B902880F991F9093B2028093D5
:1008A000B102219718F4DF91CF910895E9DFE4DEDA
:1008B00086E0D6DFF6CF80E0D3DF60E08EEF9FE703
:1008C0008BCF6BDFF8DF86E090E0CEDFD9DF9C01D5
:1008D000E091C302F0E0EE0FFF1FE258FE4F85915A
:1008E0009491207E3F738217930729F48091C1026F
:1008F0008D7F8093C1020895B89A1092600090CFC6
:10090000CF93DF93D82FC92F80E0A5DF8D2FF4DFA1
:100910008C2FDF91CF91F0CF80E0EEDF80E0ECCF45
:100920001F93CF93DF93EB01182F80E094DF812F8B
:10093000E3DF8EE0E1DF88EF9EE6E2DF80E08BDF41
:100940008D2FDADF8EE0D8DF87EF9EE6D9DF80E0FB
:1009500082DF8C2FD1DF8EE0CFDF86EF9EE6DF9146
:10096000CF911F91CDCFB8981092600080E058CF02
:1009700089E071DF80E0C0DFF6CFCF93DF93EC0139
:100980001092B9021092A6021092A5029093B202A0
:100990008093B102EDDF809399022297E9DF809383
:1009A0009A028091990290919A0266DE209791F7BF
:1009B000DF91CF910895CF936EEF7FEF8FE390E0BB
:1009C000AFDFD6DFC82FD4DF982F8C2FCF910895BB
:1009D00098E087FF11C0C09A979A00C00000880F66
:1009E000B0998160979800C00000915091F7C0982D
:1009F00094E09A95F1F70895C098EECFCF92DF92E8
:100A0000EF92FF92B89A8EEFE3DFB89880E0E0DFD4
:100A1000C12CD12C7601E82EE894E7F880E0D8DFED
:100A2000D82E80E0D5DFC82ED701C601B695A79590
:100A300097958795FF90EF90DF90CF900895109253
:100A4000B9021092A6021092A5029093B20280936E
:100A5000B102D4DF11DE8091B1029091B202892BF4
:100A6000C1F70895CF92DF92EF92FF92CF93DF9379
:100A7000CDB7DEB7C450CDBF69837A838B839C83A7
:100A80006B017C01CC0CDD1CEE1CFF1CB89A8E2D7A
:100A90009FDF8D2D9DDF8C2DCC5FCDBFDF91CF9162
:100AA000FF90EF90DF90CF9093CF0F931F93CF9352
:100AB000DF938B01D82FC92FB89A80E889DFB8015E
:100AC0008D2F9C2FDF91CF911F910F91CBCF00C025
:100AD00000C0979A00C000C097980895C098F7DFAB
:100AE000F6DFF5DF00C000C0979A88E043D49798FE
:100AF0008AE18A95F1F710CFCF93DF93CDB7DEB7B8
:100B0000C450CDBF86EA9EE8FBDE86EA9CE8F8DEAC
:100B100080E09FEEF5DE80E098EFF2DE8091A702A4
:100B20009091A802A091A902B091AA0289839A8308
:100B3000AB83BC83BC01CD01F3DE8FE08CDEA4E887
:100B4000B1E08C91D9DE80918501D6DEC7DF86EFDA
:100B50009AE2D6DE8FE07FDEE4E8F1E08081CCDE51
:100B600080918501C9DECC5FCDBFDF91CF91B6CF3B
:100B7000CF93DF93CDB7DEB7C450CDBF8091B8021D
:100B80008130D1F586EA9EE8BBDE86EA9CE9B8DED4
:100B90008091A7029091A802A091A902B091AA0207
:100BA00089839A83AB83BC83BC01CD01B9DE8DE020
:100BB00052DE80918401A0DE809185019DDE8DE072
:100BC0004ADE8091860198DE8091870195DE8DE076
:100BD00042DE8091880190DE809189018DDE8FE078
:100BE0003ADE80918A0188DE80918B0185DECC5FC0
:100BF000CDBFDF91CF9172CF8230F1F48091A70207
:100C00009091A802A091A902B091AA020A97A043CC
:100C1000B10569F480918401809377018091850109
:100C200080937801CC5FCDBFDF91CF910895CC5FE9
:100C3000CDBFDF91CF9160CF8330A1F786EA9EE9E7
:100C40005FDE86EA9CE95CDE80E005DE8091A7023B
:100C500053DE8EE051DE89EA9EE652DE80E0FBDD67
:100C60008091840149DE8EE047DE88EA9EE648DE18
:100C700086EA94E845DE85E59EE042DE87EA9EE668
:100C80003FDE8AEA9EE03CDE87EA9EE639DE86EABF
:100C900092E836DE90E080E033DE80E0DCDD86E462
:100CA00069D33ADE86EA94E9CC5FCDBFDF91CF917C
:100CB00027CE8091B3029091B402A091B502B09179
:100CC000B6020097A105B10521F401DC8093B802BA
:100CD00008954091AD025091AE026091AF027091C3
:100CE000B002481759076A077B0778F341DF2ADC0F
:100CF000ECCFCF93DF938091C10282FF22C080911D
:100D0000C302873008F07FC08091B802811144D3BC
:100D10001092C20266DBB0E0A0E040919F025091C9
:100D2000A0026091A1027091A202841B950BA60BF8
:100D3000B70B80939F029093A002A093A102B0935F
:100D4000A20288EC06DC8DE00EDC20919F0230913F
:100D5000A00210927E01C9E7D1E0FE0190E180E09F
:100D6000880F37FD8160220F331F8A3010F08A50C0
:100D700021609150A9F7805D8193B1E0EE37FB07C8
:100D800069F78E81F0DB219721E0C437D207C9F7DC
:100D90008EE2E9DB80917A01E6DB80917901E3DB89
:100DA00080E2E1DB83E7DFDB85E6DDDB83E6DBDBBF
:100DB0008AE0D9DB10928D0210928C021092C2024E
:100DC00094986BDA8091C102897E8093C102B898B1
:100DD0008F988B98BB98E5EAF2E084E1DF011D92E1
:100DE0008A95E9F78FEF9FEF9093780180937701D1
:100DF00080917501909176019093A4028093A30253
:100E0000DF91CF9108958A30F0F4B2DE80917701BE
:100E100090917801019609F47BCF809177018093BE
:100E2000840180917801809385018AE090E0A0E3BD
:100E3000B0E08093A7029093A802A093A902B09378
:100E4000AA025ADE65CF8C3098F46DD68091770176
:100E500090917801019609F45BCF9FDC2CDD87E04F
:100E600090E002DD8091770190917801F7D250CF28
:100E70008AE079DB4DCFEF92FF920F931F93CF93D0
:100E8000F894809170017894882351F0E091730177
:100E90008091B1029091B202E63041F4892BB1F019
:100EA000CF911F910F91FF90EF900895892B71F0D2
:100EB00080917501909176012091A3023091A40256
:100EC000821B930B99278F3F910551F380917101FC
:100ED000A82FB0E0A058BF4F9C9190937F008F5FE8
:100EE000803F08F03FC080937101892F2091D70285
:100EF00023FF4DC020ED290F2A3058F08FE9890FCC
:100F000029EA863028F08FEB890F863020F429EC0F
:100F1000290F27FF2EC09A3011F09D3031F5109225
:100F2000730188E691E05ADB88E032DA81E027DA63
:100F3000F894809170018150809370017894909121
:100F4000D70294FF0AC2811108C282E791E046DB12
:100F50008BED91E07FD981E0CF911F910F91FF90B0
:100F6000EF900DCA10927101C0CF87E0809373019A
:100F7000D8CF80917E008295807F820F80937E0003
:100F8000909174019F5F90937401923089F2E830E0
:100F900078F6F0E0E65AF04F099491E090937401EE
:100FA00081322CF41092730110927401C1CF8A33F4
:100FB00091F482E08093730188E0E1D910927D0082
:100FC0001092750010927B0010927A0010927400BB
:100FD00010927C00ADCF9093730180936400A8CFF2
:100FE00090917401E92FF0E0EC59FF4F8A3019F02D
:100FF0008D3009F083C0108284E690E09093630006
:1010000080936200C0E008E211E0F80165917491FC
:101010006115710509F46EC084E690E02BD9882330
:1010200021F0CF5F0E5F1F4FF0CFCE30C8F4EC2F12
:10103000F0E0EE59F04F09941092C1020EE011E079
:10104000F801E590F490E114F10489F0B70189E624
:1010500090E010D9811107C0C093C302C701BEDA66
:1010600081E096D99FCFCF5F0E5F1F4FE9CF8FEF03
:101070008093C30284E091E0F2CF8EE091E0BBDA8E
:10108000EFCF8EEF90E0EBCF34DE89EF90E0A6DA81
:101090008FEF8093C3021092C2021092C102E0CF80
:1010A00082E08093C2028EE39AE0D4D8D9CF88E25E
:1010B00091E0E5CF83E0F5CF84E0F3CF8091C102EA
:1010C00081608093C102CCCF8091C1028E7FF9CF25
:1010D00010927600109277001092780010927900AA
:1010E00008DE85E08093C202BBCF9698B9CF8BE033
:1010F00092E0B5CF86E491E071DA54CF80839F5FB0
:1011000090937401903108F413CF86E491E066DA8D
:101110001092740187E0809373010ACF8093750069
:1011200090917D00890F80937D0083E0809373010F
:1011300081E08093740110927B0010927A00F8CEC7
:10114000909174019530A9F490917D00980F90933F
:101150007D0020E030917A00280F311D30937B0014
:1011600020937A0084E08093730181E0809374017E
:10117000DFCE933009F0DCCE90917D00980F9093F4
:101180007D0090E090937B0080937A00D1CE909187
:101190007D00980F90937D0080937C0095E0909364
:1011A000730191E090937401843049F410927600B9
:1011B000109277001092780010927900B9CE8230A8
:1011C000A9F3813009F0B4CE86E0A5CFC0917400B8
:1011D000409176005091770060917800709179008D
:1011E00090917D00980F90937D0020917C002111BB
:1011F0001AC02091750130917601F901E457FE4F34
:1012000080832F5F3F4F3327309376012093750102
:10121000CF5F80917500C81303C086E0809373018F
:10122000C0937400A2CF762F652F542F44277A01E4
:101230008B01E80EF11C011D111DD801C7012230E0
:10124000A9F4CF5F20917500C213EACF34E0880F74
:10125000991FAA1FBB1F3A95D1F7809376009093F0
:101260007700A0937800B0937900D7CF243049F469
:10127000CF5F20917500C213D3CFDC019927882757
:10128000ECCF84E591E0AAD910927301C9CF909177
:101290007D00919590937D002091D70220FD0FC095
:1012A000891799F08EE591E099D981E068D880910D
:1012B0007501909176019093A4028093A30288E037
:1012C00067D887E0809373016FCE80917C00811195
:1012D0002BC08091C202882391F320917A00309133
:1012E0007B008091760090917700A0917800B0917A
:1012F0007900820F931FA11DB11D8093AD029093C1
:10130000AE02A093AF02B093B0023093AC02209330
:10131000AB028091750090E09093B2028093B1028D
:101320008EE39AE097D7CBCF813049F689E796E0F4
:1013300091D780917501909176019093A40280934A
:10134000A3021092B2021092B102B9CF8A3009F40E
:1013500029CE8D3009F0ECCD25CE9091D70295FFA6
:101360009FCD803208F09CCDCF911F910F91FF90BF
:10137000EF9017C8F894809361007894E091710120
:10138000F0E0E058FF4F808180320CF074DD8091F6
:1013900061008111F3CF0895CF93DF93CDB7DEB70E
:1013A000C550CDBF8091A7029091A802A091A9023B
:1013B000B091AA0289839A83AB83BC83BC01CD011F
:1013C00074DB909184019D83A0918501A983809114
:1013D000B802823009F4198280ECFADA6D817981E1
:1013E00080E090E03FDB8091B802823031F48DE004
:1013F000CB5FCDBFDF91CF91ACC8B4B5B98380E0EE
:10140000B9DF84B59981891B8536D8F3CB5FCDBF11
:10141000DF91CF9108958091B3029091B402A09191
:10142000B502B091B6020097A105B10521F4E0D74D
:101430008093B80208954091AD025091AE02609140
:10144000AF027091B002481759076A077B0778F31B
:101450008091B8028111A0DF75D8E9CFCF93DF93D7
:10146000EC0182E0FDD960E0CE01880F991FB4D96C
:1014700088E0F6D988E2DF91CF917CCF1F93CF939C
:10148000DF938091C3028F3F39F481EE91E0A6D8BB
:10149000DF91CF911F912DCC8091C10282FF2DC091
:1014A0001092B9028091C202843009F486C260F4BD
:1014B000823009F4E9C0833009F467C1813049F012
:1014C0008BED91E08BD805C0853009F49FC2863042
:1014D000B9F78091B1029091B2022091A3023091AC
:1014E000A402820F931F99279093A4028093A302D2
:1014F0001092B2021092B1026AC073D7B0E0A0E0BD
:1015000080939F029093A002A093A102B093A202A5
:1015100044D98091C10282608093C1028091C3024C
:10152000873008F058C06CEF7FEF8FE390E0BDDAB2
:1015300065DA9093900280938F0260DA9C01909319
:101540009202809391029091C302E92FF0E0EE0F96
:10155000FF1FE258FE4F459154914217530729F45B
:101560008091C1028D7F8093C1022BE03AE03093DD
:101570008D0220938C02892F880F890F90E08F5461
:101580009E4FFC0124913196E49110929302E093D6
:1015900094022093950210929602FC013296E491F7
:1015A00010929702E09398028091C10285FF4FC08C
:1015B0008091C202837011F084E0D5D788ECC9D73E
:1015C00088EA91E00BD88091C10282FD69CFDF915A
:1015D000CF911F9108958A3038F589E596E0909370
:1015E0008D0280938C0280E090E1A0E0B0E08093D7
:1015F000930290939402A0939502B0939602DBD944
:101600009C01E091C302F0E0EE0FFF1FE258FE4F95
:1016100085919491207E8217930731F68091C102C3
:101620008D7F8093C102C0CF8C3068F689EE9DE03B
:1016300090938D0280938C0244D98091C10281FFE6
:10164000B3CF80618093C102A8D83BD9ADCF982F8A
:1016500094609093C10281FFB6CF80FDB4CF80919A
:10166000C202837011F084E07ED788EC72D783EADF
:1016700091E0B4D78091C1028B7F8093C10288E949
:1016800091E0ACD736DB9FCF84ED91E0A7D7A9D608
:10169000B0E0A0E080939F029093A002A093A102EB
:1016A000B093A2028091C3028730A0F460E070E0A2
:1016B00080E390E0FAD988E18BD989E64AD760E0E7
:1016C00070E081E390E0F1D988E182D989E641D7E1
:1016D00010DBFFCE8A30A0F464E070E08CE390E091
:1016E0001FD98CE0B8D880E807D980E005D980E020
:1016F000B2D812D980E0AFD88DE02BD70DD9E8CF82
:101700008C3008F0E6CE49D88FEF93E0ADD8B8D84A
:101710009C0190939E0280939D0222273C73211589
:10172000344349F086EC91E059D787E794E39093EE
:101730009E0280939D02BFD887E090E095D8A0D804
:101740008827907390939C0280939B0226D8B3D8ED
:1017500089E086D88CE0FDD68BE082D88CE0F9D683
:101760001CD88FEF93E080D880919D0290919E02CB
:1017700075DEA1D887E090E077D880919B029091A8
:101780009C028F6F9F606ADEA3CF86E9E2D629D6DE
:10179000B0E0A0E080939F029093A002A093A102EA
:1017A000B093A2028091C302873008F054C060E079
:1017B00070E0CB017AD980919302909194023FD945
:1017C0008091930290919402A0919502B09196021B
:1017D0000197A140B10530F081E090E030D790E072
:1017E00080E02DD980E290E02AD760E070E080E2CE
:1017F00090E05BD980E091E022D980E390E01FD7B0
:1018000060E070E080E390E050D98CE090E017D980
:1018100081E390E014D760E070E081E390E045D987
:10182000C0919702D09198021092B9021092A6022C
:101830001092A502D093B202C093B102D695C7957B
:10184000219710F414D744CFD9D8182FD7D8982F70
:10185000812F12D7F5CF8A3008F06EC01092A60201
:101860001092A50260E070E0CB015AD81092A60257
:101870001092A50280E090E180D81092A60210920A
:10188000A50280E290E0DBD660E070E080E290E0CC
:1018900047D888E090E071D880E390E0D0D660E04F
:1018A00070E080E390E03CD88EE090E066D880EF76
:1018B00090E0C5D61092B9021092A6021092A5022D
:1018C00080E091E09093B2028093B10260E070E01A
:1018D000CB0126D8C0E0D1E01C2F1195219708F448
:1018E000B1CF86EA9EE90CD886EA9CE909D880E067
:1018F000B2D7812F01D88EE0FFD789EA9EE600D8C3
:1019000086EA90E8FDD788EA90E5FAD785EF9EE66B
:10191000F7D782E0A0D780E0EFD7C0FF04C023D87C
:1019200080939902D9CF1FD880939A02809199020F
:1019300090919A02A1D6D0CF8C3008F0CACD2DD785
:101940001092A6021092A5028FEF93E09FD7B3D713
:1019500080E090E49093A6028093A50284E090E05A
:1019600095D7A9D78EE090E49093A6028093A50224
:1019700087E090E079D781E090E088D780E092E43A
:101980009093A6028093A50208D71092B90280E036
:1019900091E09093B2028093B102C1E8D0E0219728
:1019A00009F450CF85E05CD761E090E080E014D787
:1019B00090E062D686E054D7F2CF13D5B0E0A0E035
:1019C00080939F029093A002A093A102B093A202E1
:1019D0008091C302873058F48091910290919202D5
:1019E00018D680918F029091900213D671CE8A30D2
:1019F00018F4E1D7E6D56CCE8C3008F06ACDCDD6A0
:101A00005AD786E090E030D73BD7F4CF80918E0252
:101A100080FF87C080E2A7D580918E028F5F809380
:101A20008E02813211F48DE09ED580918E02803439
:101A300020F08DE098D510928E028091B3029091A3
:101A4000B402A091B502B091B602892B8A2B8B2BE0
:101A500061F4C7D4B0E0A0E080939F029093A0020D
:101A6000A093A102B093A2026DD54091AD02509116
:101A7000AE026091AF027091B0028091A702909186
:101A8000A802A091A902B091AA02481759076A07B3
:101A90007B0708F41ECD8091B1029091B202892B90
:101AA00009F417CDE0918C02F0918D02309709F086
:101AB00009954091AD025091AE026091AF027091D4
:101AC000B0028091A702E42FE81B8091A3029091BD
:101AD000A4022091B1023091B202E83008F0F9CCB2
:101AE000F0E0EC57FE4FDC01A457BE4FAC91A08351
:101AF000019699279093A4028093A3024F5F5F4FB2
:101B00006F4F7F4F4093AD025093AE026093AF0290
:101B10007093B002215031093093B2022093B10288
:101B2000BACF8EE278CFCF93C091B8028091A8024D
:101B30009091A602891749F0823411F52ED680E0E3
:101B400092E49093A6028093A5022091A502309181
:101B5000A602369527958091A7029091A8029093AE
:101B6000A6028093A50296958795821B930B7CD63F
:101B7000C13061F48091840190918501CF916ECC48
:101B8000803419F798D680E090E4DBCFC23051F46E
:101B90008091840180937701809185018093780101
:101BA000CF910895C330E1F7809184018093990229
:101BB00010929A0283E054D68091990290919A02F1
:101BC00060E0880F991F08D688E04AD688E0CF9158
:101BD000C0C48091B3029091B402009729F4DDD57E
:101BE00041D48093B80208952091AD023091AE02A5
:101BF00028173907A8F397DFA5D4F2CF1F921FB695
:101C00001F9211248F939F93AF93BF9382B78C56EB
:101C100082BF8091D8029091D902A091DA02B0914E
:101C2000DB020196A11DB11D8093D8029093D902C9
:101C3000A093DA02B093DB02BF91AF919F918F9195
:101C40001F901FBE1F9018951F921FB61F92112440
:101C50002F933F938F939F93EF93FF93A89587B113
:101C60008770863099F484B195B19093BE028093C9
:101C7000BD0287EC87B9369AFF91EF919F918F91C2
:101C80003F912F911F901FBE1F90189584B195B161
:101C900026EC27B92091BB023091BC02820F931F22
:101CA0009093C0028093BF0224B135B13093BC023F
:101CB0002093BB02E091C402F091C502E81BF90B2E
:101CC000E031F10514F0EFE0F0E0F7FF02C0F0E0E2
:101CD000E0E0E550FE4FE491F0E0FBBDEABDCBCF84
:101CE0008F938FB78F939A9B05C055988F918FBF15
:101CF0008F9118958091D70281FFF8CF83E18CB93D
:101D00008091D7028D7F8093D702EFCF1F921FB6AD
:101D10001F9211248F939F93EF93FF939CB1809117
:101D2000D70284FD18C080917001803D59F48091E4
:101D3000D70285FD07C08091D70282628093D702C7
:101D4000AB9A559A809170018F3E68F08091D702CE
:101D500080618093D702FF91EF919F918F911F90A7
:101D60001FBE1F901895809170018F5F8093700146
:101D7000E091720181E08E0F80937201F0E0E058F3
:101D8000FF4F9083803F38F310927201E4CF8F931E
:101D90008FB78F938091D70281FF02C09A9B559A8B
:101DA00080916100882329F08091610081508093A7
:101DB00061008F918FBF8F911895A8951092D802CE
:101DC0001092D9021092DA021092DB0218BA15BAF8
:101DD00083E482BB8BE384BB86E781BB86E087BB61
:101DE00088E198E00FB6F894A89581BD0FBE91BD2B
:101DF00086EC87B98DE886B9369A82EA8FBD89E18B
:101E00008EBD8FEF90E097BD86BD8FE090E09BBDCB
:101E10008ABD99BD88BDC2E0C5BD85E083BF81E4B0
:101E200089BF8091D70282608093D702E7ECF2E00D
:101E300080E1DF011D928A95E9F71092C60288E7DA
:101E400094E09093C5028093C4028AE082D3A8955F
:101E50008AE07FD3A8958FEF8093C3021092C202CD
:101E60001092C1028FE889B910BCCBB986E880BD59
:101E700088E98AB98CB19FD28BE092E0AFD310E0B1
:101E8000FAD7C12FD0E0CC0FDD1FC953DD4FE88159
:101E9000F9813097A9F30995198218821F5F17708D
:101EA000EFCFDC0101C06D9341505040E0F7089541
:101EB000F894FFCF72C894C831C942C968C986C9AD
:101EC000E6C944CAB9C8CCC8D8C8DBC8DDC8E8C8A8
:101ED000EEC8F0C8F1C8F2C8F7C8FAC806C907C901
:00000001FF
