:100000002AC139C138C137C13BCF35C134C133C131
:1000100032C17CCE30C1F5CE2EC12DC1A6CE2BC1B2
:100020002AC129C128C13132663637350A0031323A
:10003000663632390A00313866343232300A0031DD
:100040003866323232300A00313866313232300AA4
:100050000031386634377131300A00313866343651
:100060007131300A0031386634357131300A00316F
:10007000386632377131300A0031386632367131C4
:10008000300A0031386632357131300A0031386655
:1000900032347131300A005645520A005643435FEC
:1000A0004F4E0A0057524954450A005359474E5F74
:1000B0004F4E0A005359474E5F4F46460A00535968
:1000C000474E0A00524541440A0048454C500A0038
:1000D00045524153450A00454E440A0043484950A1
:1000E0005F4C4953540A0043484950206E616D6586
:1000F0000A0043484950200A00656E640A00434FD5
:100100004E540A0062616420636869700A008D00C1
:10011000830079006F0065005B00510048003F00DC
:1001200036002E0026000000F200E700DC00FE0092
:10013000D700D000CA00C400BE00B400AB00A400C9
:100140009C00970000002062616420636F6D6D6108
:100150006E640A0020626164207479700A00206273
:100160006164206372630A002062616420686578BC
:100170000A0020746F6F2066617374210A00010009
:1001800000000A00000064000000E80300001027DF
:100190000000A086010040420F008096980000E118
:1001A000F505C071A0718071007140712071E0701F
:1001B000E0078005A005800FC00F00007379676E0F
:1001C00061747572650A0062616420006261642076
:1001D0005648480A00004001008001010004020066
:1001E00004008001010004020004736574206F7331
:1001F0006320307837370A0065726173650A0077CB
:100200007466210A0063686F6963652063686970BA
:100210000A003A303030303030303146460A000083
:1002200024435C728493A0ABB4BCC2C7CCD0D3745B
:10023000726F70696320617574683A2074726F6CB4
:100240002E7369782047504C20763220762E302E3F
:10025000322E310A000011241FBECFE5D4E0DEBFEC
:10026000CDBF22E0A0E6B0E001C01D92AE3DB207D6
:10027000E1F716DE9ACEC4CE9C018091C902E82F28
:10028000F0E0EE0FFF1FE653FD4F318320838F5FB9
:1002900087708093C90208955D9BFECF8CB9089545
:1002A000CF93C82F82958F70C03A78F0895CF4DFC5
:1002B0008C2F8F708A305CF0895CEEDF8091BB02FE
:1002C0008C1B8093BB02CF910895805DF0CF805D41
:1002D000F4CFCF93DF93EC0180E3DEDF88E7DCDF50
:1002E0008D2FDEDF8C2FDF91CF91DACFCF93DF938D
:1002F000EC01FE0184912196181614F4CDDFF9CF9C
:10030000DF91CF910895CF93C82F892FC9DF8C2F0C
:10031000C7DF8091BA028F5F8093BA02803130F0DC
:100320008AE0BADF1092BA02CF91089580E2CF91AD
:10033000B3CFCF93C82F1092BB028AE3ADDF82E028
:10034000AFDF80E0ADDF80E0ABDF84E0A9DF80E0FD
:10035000A7DF8C2FA5DF8091BB02A2DF8AE0CF91BF
:100360009BCF82E192E0C2DF84E096CFFF920F93B1
:100370001F93CF93DF93F82E092FC091B202D09133
:10038000B3021091BA02111112C01092BB028AE39B
:1003900083DF80E1C131D10508F48C2F81DF8091AA
:1003A000A7027EDF8091A6027BDF80E079DF2297C3
:1003B0008091A6029091A70202969093A702809343
:1003C000A6028F2D6DDF802F6BDF1F5F1093BA02A7
:1003D000183010F4209739F48091BB0261DF8AE075
:1003E0005BDF1092BA02D093B302C093B202DF91E6
:1003F000CF911F910F91FF900895DC01FB01949123
:100400008C919A3011F09D3011F4882341F01196AF
:10041000891307C08F7D31968111F1CF089580E057
:10042000089581E00895CF93DF93EC01FE0185915B
:100430009491009719F05ADF2296F8CFDF91CF916F
:1004400008959498969A929895989798C098B89A83
:100450008F9A0895CF92DF92EF92FF920F931F939E
:100460006B017C01C901DA014091AE025091AF02EB
:100470006091B0027091B1024C155D056E057F056B
:1004800008F450C08C0D9D1DAE1DBF1D48175907A7
:100490006A077B0708F046C08091B4029091B502CC
:1004A000A091B602B091B7028C159D05AE05BF05AF
:1004B00040F4C092B402D092B502E092B602F0923B
:1004C000B7028091B4029091B502A091B602B091AA
:1004D000B70210E030E020E0481759076A077B07B1
:1004E000E0F48093B4029093B502A093B602B09367
:1004F000B702801B910BA20BB30B8093A8029093C1
:10050000A902A093AA02B093AB0281E01F910F91C0
:10051000FF90EF90DF90CF900895800F911FA21F62
:10052000B31FDACF80E0F2CF982FF8948091750155
:10053000892B8093750178940895F89490917501B2
:100540008095892380937501789408955D9BFECFF3
:1005500081E18CB980E2F1CF1092740110927301A5
:100560001092720110927101109270011092770135
:10057000109276011092A5021092A402E7DF8CB1CE
:100580008AE3DBCFF8948091DA029091DB027894D1
:1005900008950F9320919402309195024091960214
:1005A0005091970202E060E070E0CB0153DF8823B6
:1005B00019F081E00F91089502E020E031E040E081
:1005C00050E060E070E080E290E044DF8111F1CF24
:1005D0002CE030E040E050E060E070E080E390E04C
:1005E00039DF8111E6CF209198023091990250E0D5
:1005F00040E001E060E070E081E390E02BDF8823E1
:10060000C9F282E0D7CF0F9302E020E038E040E06B
:1006100050E060E070E0CB011DDF882319F081E03D
:100620000F91089502E028E030E040E050E060E003
:1006300070E480E090E00EDF8111F1CF22E030E045
:1006400040E050E06EE070E480E090E003DF811174
:100650000DC020E031E040E050E060E072E480E076
:1006600090E0F8DE8823E1F283E0DACF82E0D8CFB1
:100670000F932091940230919502409196025091EF
:10068000970208E060E070E0CB01E4DE882319F017
:1006900081E00F91089508E020E130E040E050E073
:1006A00060E070E080E290E0D5DE8111F1CF02E001
:1006B0002EE030E040E050E060E070E080E390E069
:1006C000C9DE81110EC001E020E031E040E050E0E1
:1006D00060E070E080EF90E0BDDE8823D1F283E03F
:1006E000D8CF82E0D6CF48E050E06FEF70E085E8E9
:1006F00091E054CC815008F40895ECECFAE0319785
:10070000F1F700C00000F6CF8091C30285FD0BC059
:1007100098DE88ECEFDF949A88EB8A95F1F7000079
:10072000969882E0E7CF08958091C30285FD09C0C5
:1007300088DE88ECDFDF969882E0DCDF949A82E046
:10074000D9CF0895CF939093C7028093C602C4E691
:10075000C15021F48091C30280621BC08AE0CADFCD
:10076000F8942091C0023091C10278948091C60221
:100770009091C70202962817390750F78091C60258
:100780009091C7020A978217930710F78091C302CE
:100790008F7D8093C302CF9108958091C5028730E9
:1007A00048F48CE894E0CEDFAFDF8091C30285FF90
:1007B00012C047CE8A3028F48CED95E0C3DFB4DF59
:1007C000F4CF8C3040F48CED95E0BCDF8091C30217
:1007D00084FFF5CFE9CF08959C0180E020FF1DC084
:1007E000C09A979A6623D9F08130C9F4B8983695A3
:1007F000279500C000C0B0993068979800C000C02D
:100800008F5F803159F7C098C9019695879527E089
:100810002A95F1F700C09F730895C098E2CF8F30FA
:1008200031F7B89AE4CF26E030E091E0482F492331
:1008300089F0C09A979A00C000C0979800C000C085
:10084000990F2150310991F7C09887E08A95F1F707
:1008500000C00895C098EECFCF93DF93EC012097AE
:1008600019F4DF91CF91089586E0DDDF2197F7CF6E
:1008700084E0D9DF61E090E080E0AECFCF93DF93FA
:10088000EC011092BA02880F991F9093B3028093E3
:10089000B202219718F4DF91CF910895E9DF66DD68
:1008A00086E0C1DFF6CF80E0BEDF60E08EEF9FE73D
:1008B00093CF73DFF8DF86E090E0CEDFD9DF9C01D5
:1008C000E091C502F0E0EE0FFF1FEE55FE4F85915F
:1008D0009491207E3F738217930729F48091C3027D
:1008E0008D7F8093C302089598E087FF11C0C09A5E
:1008F000979A00C000C0880FB0998160979800C097
:1009000000C0915091F7C09894E09A95F1F708953E
:10091000C098EECFCF92DF92EF92FF92B89A8EEF0F
:10092000E3DFB89880E0E0DFC12CD12C7601E82E1F
:10093000E894E7F880E0D8DFD82E80E0D5DFC82E35
:10094000D701C601B695A79597958795FF90EF902B
:10095000DF90CF900895CF93DF93EC011092BA020D
:100960001092A7021092A6029093B3028093B20253
:10097000D695C795219718F4DF91CF910895CADFD6
:10098000F5DCF8CFCF92DF92EF92FF92CF93DF9317
:1009900000D000D0CDB7DEB769837A838B839C8388
:1009A0006B017C01CC0CDD1CEE1CFF1CB89A8E2D5B
:1009B0009BDF8D2D99DF8C2D0F900F900F900F9056
:1009C000DF91CF91FF90EF90DF90CF908DCF0F937D
:1009D0001F93CF93DF938B01D82FC92FB89A80E84C
:1009E00083DFB8018D2F9C2FDF91CF911F910F9145
:1009F000C9CFB89A24E030E091E0482F492381F034
:100A0000C09A979A00C000C0979800C000C0990F84
:100A10002150310991F7C09884E08A95F1F7089543
:100A2000C098EFCF98E080FF11C0C09A979A00C09D
:100A300000C08695B0998068979800C000C091501A
:100A400091F7C09894E09A95F1F70895C098EECF89
:100A5000B89AE8CFCF93DF93D82FC92F80E0C9DFB2
:100A60008D2FF6DF8C2FDF91CF91F2CF80E0F0DF7A
:100A700080E0EECF1F93CF93DF93EB01182F80E040
:100A8000B8DF812FE5DF8EE0E3DF88EF9EE6E2DF6F
:100A900080E0AFDF8D2FDCDF8EE0DADF87EF9EE6D0
:100AA000D9DF80E0A6DF8C2FD3DF8EE0D1DF86EFA9
:100AB0009EE6DF91CF911F91CDCFB89880E0B2CF65
:100AC00089E097DF80E0C4DFF8CFCF93DF93EC01BC
:100AD0001092BA021092A7021092A6029093B3024B
:100AE0008093B202EDDF80939A022297E9DF809330
:100AF0009B0280919A0290919B0238DC209791F79B
:100B0000DF91CF910895CF936EEF7FEF8FE390E069
:100B1000B1DFD6DFC82FD4DF982F8C2FCF91089567
:100B200000C000C0979A00C000C097980895C09870
:100B3000F7DFF6DFF5DF00C000C0979A87E0A6D4A4
:100B400097988AE18A95F1F791CFCF93DF9300D000
:100B500000D0CDB7DEB786EA9EE87CDF86EA9CE867
:100B600079DF80E09FEE76DF80E098EF73DF8091A1
:100B7000A8029091A902A091AA02B091AB02898328
:100B80009A83AB83BC83BC01CD0174DF8FE031DF7E
:100B9000A5E8B1E08C915CDF8091860159DFC7DF69
:100BA00086EF9AE257DF8FE024DFE5E8F1E080810D
:100BB0004FDF809186014CDF0F900F900F900F90C8
:100BC000DF91CF91B4CFCF93DF9300D000D0CDB7DA
:100BD000DEB78091B9028130E1F586EA9EE83ADF1E
:100BE00086EA9CE937DF8091A8029091A902A09142
:100BF000AA02B091AB0289839A83AB83BC83BC0108
:100C0000CD0138DF8DE0F5DE8091850121DF809117
:100C100086011EDF8DE0EDDE8091870119DF809176
:100C2000880116DF8DE0E5DE8091890111DF80917A
:100C30008A010EDF8FE0DDDE80918B0109DF80917C
:100C40008C0106DF0F900F900F900F90DF91CF91E6
:100C50006ECF823011F58091A8029091A902A091E7
:100C6000AA02B091AB020A97A043B10579F4809132
:100C700085018093780180918601809379010F909E
:100C80000F900F900F90DF91CF9108950F900F90DC
:100C90000F900F90DF91CF9158CF833081F786EA84
:100CA0009EE9D8DE86EA9CE9D5DE80E0A2DE80916E
:100CB000A802CEDE8EE0CCDE89EA9EE6CBDE80E0C6
:100CC00098DE80918501C4DE8EE0C2DE88EA9EE671
:100CD000C1DE86EA94E8BEDE85E59EE0BBDE87EAFB
:100CE0009EE6B8DE8AEA9EE0B5DE87EA9EE6B2DEE0
:100CF00086EA92E8AFDE90E080E0ACDE80E079DE6C
:100D000086E4C4D3B3DE86EA94E90F900F900F9087
:100D10000F90DF91CF919ECE8091B4029091B50259
:100D2000A091B602B091B7020097A105B10521F4D8
:100D30009FDC8093B90208954091AE025091AF02BA
:100D40006091B0027091B102481759076A077B079A
:100D500078F339DFC8DCECCF0F931F93CF93DF9389
:100D60008091C30282FF22C08091C502873008F0C3
:100D700045C08091B902811157D71092C40202DC9C
:100D8000B0E0A0E04091A0025091A1026091A202C7
:100D90007091A302841B950BA60BB70B8093A00246
:100DA0009093A102A093A202B093A30288ECA2DCCC
:100DB0008DE072DA8091A0029091A10210928401DC
:100DC0001092830110928201109281011092800191
:100DD00010927F0120E097FD49C04EE851E0AFE757
:100DE000B1E0CEE7D1E0FA0105911491BC01601B9E
:100DF000710B77FD3FC02F5FCB01F8CF8A30F0F445
:100E0000E2DE8091780190917901019609F4B5CFE5
:100E1000809178018093850180917901809386018A
:100E20008AE090E0A0E3B0E08093A8029093A9024A
:100E3000A093AA02B093AB0288DE9FCF8C3098F4C7
:100E400088D68091780190917901019609F495CF27
:100E5000A4DC29DD87E090E0FFDC809178019091AF
:100E6000790127D38ACF8AE017DA87CF805197425A
:100E70002F5FB1CF205D2E934450510920E0C4175D
:100E8000D50709F0B0CF805D80937A01CAE7D1E041
:100E900005E711E08E8100DA21970C171D07D1F7C5
:100EA0008EE2FAD980917B01F7D980917A01F4D949
:100EB00080E2F2D983E7F0D985E6EED983E6ECD972
:100EC0008AE0EAD910928E0210928D021092C4022A
:100ED0009498B7DA8091C302897E8093C302B89850
:100EE0008F988B98BB98E6EAF2E084E1DF011D92CF
:100EF0008A95E9F78FEF9FEF9093790180937801BE
:100F000080917601909177019093A5028093A4023D
:100F1000DF91CF911F910F910895EF92FF920F9360
:100F20001F93CF93F894809170017894882351F0A7
:100F3000E09173018091B2029091B302E83041F4E4
:100F4000892BB1F0CF911F910F91FF90EF900895F1
:100F5000892B71F080917601909177012091A40204
:100F60003091A502821B930B99278F3F910551F376
:100F700080917101A82FB0E0A058BF4F9C91909331
:100F80007F008F5F803F08F03FC080937101892F01
:100F90002091750123FF4DC020ED290F2A3058F014
:100FA0008FE9890F29EA863028F08FEB890F863088
:100FB00020F429EC290F27FF2EC09A3011F09D3024
:100FC00031F51092730188E691E090D988E0B5DAA6
:100FD00081E0AADAF89480917001815080937001C9
:100FE00078949091750194FF44C2811142C282E7C6
:100FF00091E07CD98CEA92E03FD981E0CF911F91BA
:101000000F91FF90EF9090CA10927101C0CF89E0CC
:1010100080937301D8CF80917E008295807F820F6C
:1010200080937E00909174019F5F90937401923041
:1010300089F2EA3078F6F0E0E952F04F099491E055
:101040009093740181322CF4109273011092740108
:10105000C1CF8A33A1F484E08093730188E064DA1D
:1010600010927D001092750010927B0010927A0011
:10107000109274001092730010927C00ABCF93E03A
:101080009093730180936300A5CF90917401E92F31
:10109000F0E0ED59FF4F8A3019F08D3009F083C030
:1010A000108283E690E09093620080936100C0E03C
:1010B00008E211E0F801659174916115710509F478
:1010C0006EC083E690E099D9882321F0CF5F0E5F50
:1010D0001F4FF0CFCE30C8F4EC2FF0E0EF51F04FBF
:1010E00009941092C3020EE011E0F801E590F4902B
:1010F000E114F10489F0B70188E690E07ED981110E
:1011000007C0C093C502C701F1D881E016DA9CCFB1
:10111000CF5F0E5F1F4FE9CF8FEF8093C50284E052
:1011200091E0F2CF8EE091E07ED9EFCF8EEF90E0AC
:10113000EBCF12DE89EF90E0D9D88FEF8093C50214
:101140001092C4021092C302E0CF82E08093C402E6
:1011500089E69AE091D8D9CF88E291E0E5CF83E0A3
:10116000F5CF84E0F3CF8091C30281608093C30206
:10117000CCCF8091C3028E7FF9CF1092760010926F
:1011800077001092780010927900E6DD85E0809378
:10119000C402BBCF9698B9CF8FE292E0B5CF86E478
:1011A00091E0A4D851CF80839F5F909374019031D8
:1011B00008F410CF86E491E099D81092740189E088
:1011C0008093730107CF8093750090917D00890F04
:1011D00080937D0085E08093730181E080937401AA
:1011E00010927B0010927A00F5CE909174019530A8
:1011F000A9F490917D00980F90937D0020E03091AC
:101200007A00280F311D30937B0020937A0086E00E
:101210008093730181E080937401DCCE933009F0F8
:10122000D9CE90917D00980F90937D0090E090939F
:101230007B0080937A00CECE90917D00980F9093A2
:101240007D0080937C0097E09093730191E09093F0
:101250007401843049F41092760010927700109255
:10126000780010927900B6CE8230A9F3813009F06F
:10127000B1CE88E0A5CF2091730030917400909199
:101280007D00980F90937D0090917C0091111DC07E
:101290004091760150917701FA01E357FE4F808328
:1012A0004F5F5F4F552750937701409376012F5F33
:1012B0003F4F309374002093730080917500821724
:1012C000130609F0A7CF88E0A3CF9230C1F5409173
:1012D0007600509177006091780070917900762FB8
:1012E000652F542F44277A018B01E80EF11C011D54
:1012F000111DD801C7018093760090937700A093C9
:101300007800B09379002F5F3F4F309374002093A3
:101310007300409175004217130609F07BCFF4E08B
:10132000880F991FAA1FBB1FFA95D1F780937600EB
:1013300090937700A0937800B0937900C4CF943055
:1013400061F540917600509177006091780070913E
:101350007900762F652F542F44277A018B01E80EF0
:10136000F11C011D111DD801C701809376009093D7
:101370007700A0937800B09379002F5F3F4F3093B0
:10138000740020937300409175004217130609F012
:1013900041CFDC0199278827C9CF84E591E0A6D702
:1013A0001092730137CF90917D00919590937D00BD
:1013B0002091750120FD0FC0891799F08EE591E00D
:1013C00095D781E0B1D88091760190917701909383
:1013D000A5028093A40288E0B0D889E080937301CD
:1013E00035CE80917C0081112BC08091C40288236E
:1013F00091F320917A0030917B008091760090915A
:101400007700A0917800B0917900820F931FA11D01
:10141000B11D8093AE029093AF02A093B002B0933F
:10142000B1023093AD022093AC028091750090E040
:101430009093B3028093B20289E69AE01DD7CBCF96
:10144000813049F68CEA96E017D780917601909129
:1014500077019093A5028093A4021092B302109298
:10146000B202B9CF8A3009F4EFCD8D3009F0B2CD98
:10147000EBCD9091750195FF65CD803208F062CD7E
:10148000CF911F910F91FF90EF9060C8F8948093D7
:1014900060007894E0917101F0E0E058FF4F809196
:1014A0006000811101C0089580818032C4F335DD70
:1014B000F1CFCF93DF93EC0182E0B5D960E0CE01AC
:1014C000880F991F89D988E0AED988E2DF91CF9142
:1014D000DDCF1F93CF93DF938091C5028F3F39F407
:1014E00085E092E003D7DF91CF911F9135CC8091B9
:1014F000C30282FF2DC01092BA028091C4028430D0
:1015000009F474C260F4823009F4E9C0833009F44C
:1015100067C1813049F08FEF91E0E8D605C0853092
:1015200009F48DC28630B9F78091B2029091B3026E
:101530002091A4023091A502820F931F99279093C6
:10154000A5028093A4021092B3021092B2026AC064
:1015500019D8B0E0A0E08093A0029093A102A093DC
:10156000A202B093A30219D98091C3028260809332
:10157000C3028091C502873008F058C06CEF7FEF3E
:101580008FE390E024DAC6D9909391028093900281
:10159000C1D99C0190939302809392029091C502CD
:1015A000E92FF0E0EE0FFF1FEE55FE4F45915491ED
:1015B0004217530729F48091C3028D7F8093C302A1
:1015C00023E63EE030938E0220938D02892F880F10
:1015D000890F90E08B529E4FFC0124913196E4914B
:1015E00010929402E0939502209396021092970233
:1015F000FC013296E49110929802E0939902809156
:10160000C30285FF4FC08091C402837011F084E053
:1016100043D688EC6FD88CEC91E068D68091C302F9
:1016200082FD69CFDF91CF911F9108958A3038F5FF
:101630008CE896E090938E0280938D0280E090E19A
:10164000A0E0B0E08093940290939502A09396025C
:10165000B093970258DA9C01E091C502F0E0EE0FDA
:10166000FF1FEE55FE4F85919491207E82179307C0
:1016700031F68091C3028D7F8093C302C0CF8C303E
:1016800068F68FEF9DE090938E0280938D0211D9C2
:101690008091C30281FFB3CF80618093C3027DD864
:1016A00008D9ADCF982F94609093C30281FFB6CF35
:1016B00080FDB4CF8091C402837011F084E0ECD53A
:1016C00088EC18D887EC91E011D68091C3028B7F0B
:1016D0008093C3028CEB91E009D63EDB9FCF88EF6D
:1016E00091E004D64FD7B0E0A0E08093A0029093A1
:1016F000A102A093A202B093A3028091C5028730F9
:10170000A0F460E070E080E390E061D988E1ECD87B
:1017100089E6F0D760E070E081E390E058D988E195
:10172000E3D889E6E7D718DBFFCE8A30A0F464E07F
:1017300070E08CE390E09ED98CE05BD980E888D99A
:1017400080E086D980E055D991D980E052D98DE0EA
:10175000D1D78CD9E8CF8C3008F0E6CE1ED88FEFE9
:1017600093E07AD885D89C0190939F0280939E0243
:1017700022273C732115344349F08AEE91E0B6D517
:1017800087E794E390939F0280939E028CD887E032
:1017900090E062D86DD88827907390939D028093D3
:1017A0009C02FBD780D889E03ED88CE0A3D78BE0A1
:1017B0003AD88CE09FD7F1D78FEF93E04DD8809146
:1017C0009E0290919F0275DE6ED887E090E044D82B
:1017D00080919C0290919D028F6F9F606ADEA3CFE3
:1017E00086E988D7CFD6B0E0A0E08093A00290939E
:1017F000A102A093A202B093A3028091C5028730F8
:1018000008F042C060E070E0CB01E1D88091940222
:1018100090919502A0D880E290E08BD560E070E0D6
:1018200080E290E0D4D880E091E095D880E390E029
:1018300080D560E070E080E390E0C9D88CE090E073
:101840008AD881E390E075D560E070E081E390E0B4
:10185000BED8C0919802D09199021092BA0210920B
:10186000A7021092A602D093B302C093B202D695FB
:10187000C795219710F475D556CF4CD8182F4AD854
:10188000982F812F73D5F5CF8A3008F06EC0109253
:10189000A7021092A60260E070E0CB01EBD8109294
:1018A000A7021092A60280E090E10FD91092A70241
:1018B0001092A60280E290E03CD560E070E080E209
:1018C00090E0D8D888E090E000D980E390E031D56E
:1018D00060E070E080E390E0CDD88EE090E0F5D855
:1018E00080EF90E026D51092BA021092A7021092D3
:1018F000A60280E091E09093B3028093B20260E090
:1019000070E0CB01B7D8C0E0D1E01C2F1195219732
:1019100008F4B1CF86EA9EE99DD886EA9CE99AD878
:1019200080E067D8812F94D88EE092D889EA9EE62D
:1019300091D886EA90E88ED888EA90E58BD885EF32
:101940009EE688D882E055D880E082D8C0FF04C0E7
:10195000B4D880939A02D9CFB0D880939B0280915B
:101960009A0290919B0202D5D0CF8C3008F0DCCD4A
:1019700014D71092A7021092A6028FEF93E07ED7A1
:1019800092D780E090E49093A7028093A60284E02F
:1019900090E074D788D78EE090E49093A70280936C
:1019A000A60287E090E058D781E090E067D780E01A
:1019B00092E49093A7028093A602EFD61092BA0207
:1019C00080E091E09093B3028093B202C1E8D0E04E
:1019D000219709F450CF85E026D761E090E080E0C0
:1019E000FBD690E0C3D486E01ED7F2CFCBD5B0E0D3
:1019F000A0E08093A0029093A102A093A202B093D2
:101A0000A3028091C502873058F480919202909190
:101A1000930279D4809190029091910274D483CEF4
:101A20008A3018F470D855D47ECE8C3008F07CCD36
:101A3000B4D639D786E090E00FD71AD7F4CFC0914B
:101A40008F0280E2C0FF8EE227D4CF5FC0938F0267
:101A5000C13209F076C08DE01FD48091B40290911C
:101A6000B502A091B602B091B702892B8A2B8B2BBD
:101A700061F488D5B0E0A0E08093A0029093A10229
:101A8000A093A202B093A3022ED64091AE02509131
:101A9000AF026091B0027091B1028091A802909162
:101AA000A902A091AA02B091AB02481759076A0790
:101AB0007B0708F439CD8091B2029091B302892B53
:101AC00009F432CDE0918D02F0918E02309709F049
:101AD00009954091AE025091AF026091B0027091B1
:101AE000B1028091A802E42FE81B8091A40290919A
:101AF000A5022091B2023091B302E83008F014CD73
:101B0000F0E0EB57FE4FDC01A357BE4FAC91A08332
:101B1000019699279093A5028093A4024F5F5F4F8F
:101B20006F4F7F4F4093AE025093AF026093B0026D
:101B30007093B102215031093093B3022093B20265
:101B4000BACFC03408F489CF8DE0A6D310928F02AB
:101B500084CFCF93C091B9028091A9029091A7023E
:101B6000891749F0823411F518D680E092E49093F9
:101B7000A7028093A6022091A6023091A702369573
:101B800027958091A8029091A9029093A702809333
:101B9000A60296958795821B930B5ED6C13061F4A1
:101BA0008091850190918601CF9183CC803419F783
:101BB0007AD680E090E4DBCFC23051F48091850189
:101BC000809378018091860180937901CF91089567
:101BD000C330E1F78091850180939A0210929B02B5
:101BE00083E021D680919A0290919B0260E0880F59
:101BF000991FF2D588E017D688E0CF917BC58091F8
:101C0000B4029091B502009729F4C7D5FCD4809313
:101C1000B90208952091AE023091AF02281739071A
:101C2000A8F397DF60D5F2CFCF93DF9300D000D039
:101C30000F92CDB7DEB78091A8029091A902A09132
:101C4000AA02B091AB0289839A83AB83BC83BC01A7
:101C5000CD01BDD6909185019D83A0918601A98378
:101C60008091B902823009F4198280EC3DD66D81F1
:101C7000798180E090E086D68091B902823049F483
:101C80008DE00F900F900F900F900F90DF91CF91FC
:101C900031C5F894B4B52B2F30E03A83298378947A
:101CA0003CD9F89484B57894A981BA81A81BB1096C
:101CB000A536B105B0F30F900F900F900F900F90D5
:101CC000DF91CF9108958091B4029091B502A091D7
:101CD000B602B091B7020097A105B10521F459D41D
:101CE0008093B90208954091AE025091AF02609185
:101CF000B0027091B102481759076A077B0778F361
:101D00008091B902811190DFEED4E9CF1F921FB606
:101D10001F9211248F939F93AF93BF938091C20220
:101D2000882329F08091C20281508093C20282B739
:101D30008C5682BF8091DA029091DB02A091DC0286
:101D4000B091DD020196A11DB11D8093DA0290933E
:101D5000DB02A093DC02B093DD02BF91AF919F91B3
:101D60008F911F901FBE1F9018951F921FB61F9234
:101D700011242F933F938F939F93EF93FF93A895F5
:101D800087B18770863099F484B195B19093BF0282
:101D90008093BE0287EC87B9369AFF91EF919F91AD
:101DA0008F913F912F911F901FBE1F90189584B166
:101DB00095B126EC27B92091BC023091BD02820F6B
:101DC000931F9093C1028093C00224B135B1309328
:101DD000BD022093BC02E091C602F091C702E81B4D
:101DE000F90BE031F10514F0EFE0F0E0F7FF02C08D
:101DF000F0E0E0E0E15EFD4FE491F0E0FBBDEABD24
:101E0000CBCF1F921FB61F9211248F939F93EF93F6
:101E1000FF939CB18091750184FD16C08091700183
:101E2000803D49F4809175018062809375015D9BCE
:101E3000FECF83E18CB9809170018F3E68F0809174
:101E40007501806180937501FF91EF919F918F9152
:101E50001F901FBE1F901895809170018F5F809317
:101E60007001E091720181E08E0F80937201F0E0C9
:101E7000E058FF4F9083803F38F310927201E4CF17
:101E80008F938FB78F9380916000882329F0809182
:101E900060008150809360008F918FBF8F91189563
:101EA000A8951092DA021092DB021092DC021092D6
:101EB000DD0218BA15BA83E482BB8FE384BB86E7E0
:101EC00081BB86E087BB88E198E00FB6F894A895BF
:101ED00081BD0FBE91BD86EC87B98DE886B9369A73
:101EE00082EA8FBD89E18EBD8FEF90E097BD86BD00
:101EF0008FE090E09BBD8ABD99BD88BDC2E0C5BDA5
:101F000085E083BF81E489BFEAECF2E080E1DF0194
:101F10001D928A95E9F71092C9021092C80288E7CB
:101F200094E09093C7028093C6028AE0E3D3A89519
:101F30008AE0E0D3A8958FEF8093C5021092C40287
:101F40001092C3028FE889B910BCCBB986E880BD76
:101F500088E98AB98CB100D38FE292E0C7D1DDD78E
:101F6000E091C802F0E0EE0FFF1FE653FD4F8081C5
:101F70009181892BA1F30190F081E02D0995809149
:101F8000C802E82FF0E0EE0FFF1FE653FD4F11826D
:101F900010828F5F87708093C802E1CFDC0101C09F
:101FA0006D9341505040E0F70895F894FFCF47C833
:101FB00011C810C86AC807C918C93EC95CC9F3C9A5
:101FC00051CA8FC8A2C8AEC8B1C8B3C8BEC8C4C8B9
:0E1FD000C6C8C7C8C8C8CDC8D0C8DCC8DDC8E0
:00000001FF
